{
  "_format": "hh-sol-artifact-1",
  "contractName": "ApplicationContract",
  "sourceName": "contracts/Application.sol",
  "abi": [
    {
      "inputs": [
        {
          "internalType": "address",
          "name": "collegeAddress",
          "type": "address"
        },
        {
          "internalType": "string",
          "name": "collegeName",
          "type": "string"
        },
        {
          "internalType": "address",
          "name": "universityAddress",
          "type": "address"
        }
      ],
      "name": "addCollege",
      "outputs": [],
      "stateMutability": "nonpayable",
      "type": "function"
    },
    {
      "inputs": [
        {
          "internalType": "string",
          "name": "courseName",
          "type": "string"
        },
        {
          "internalType": "address",
          "name": "courseAddress",
          "type": "address"
        },
        {
          "internalType": "enum DataContract.Coursetype",
          "name": "courseType",
          "type": "uint8"
        },
        {
          "internalType": "address",
          "name": "collegeAddress",
          "type": "address"
        },
        {
          "internalType": "address",
          "name": "universityAddress",
          "type": "address"
        },
        {
          "internalType": "uint256",
          "name": "seats",
          "type": "uint256"
        }
      ],
      "name": "addCourse",
      "outputs": [],
      "stateMutability": "nonpayable",
      "type": "function"
    },
    {
      "inputs": [
        {
          "internalType": "string",
          "name": "universityName",
          "type": "string"
        },
        {
          "internalType": "address",
          "name": "universityAddress",
          "type": "address"
        }
      ],
      "name": "addUniversity",
      "outputs": [],
      "stateMutability": "nonpayable",
      "type": "function"
    },
    {
      "inputs": [
        {
          "internalType": "address",
          "name": "courseAddress",
          "type": "address"
        },
        {
          "internalType": "address",
          "name": "studentAddress",
          "type": "address"
        },
        {
          "internalType": "string",
          "name": "assignedRegNo",
          "type": "string"
        },
        {
          "internalType": "string",
          "name": "assignedBatchNo",
          "type": "string"
        }
      ],
      "name": "approve",
      "outputs": [],
      "stateMutability": "nonpayable",
      "type": "function"
    },
    {
      "inputs": [
        {
          "internalType": "bool",
          "name": "login",
          "type": "bool"
        }
      ],
      "name": "auth",
      "outputs": [],
      "stateMutability": "nonpayable",
      "type": "function"
    },
    {
      "inputs": [],
      "name": "getAllUniversities",
      "outputs": [
        {
          "internalType": "address[]",
          "name": "",
          "type": "address[]"
        }
      ],
      "stateMutability": "view",
      "type": "function"
    },
    {
      "inputs": [
        {
          "internalType": "address",
          "name": "",
          "type": "address"
        }
      ],
      "name": "getCollege",
      "outputs": [
        {
          "internalType": "address",
          "name": "addr",
          "type": "address"
        },
        {
          "internalType": "string",
          "name": "clgName",
          "type": "string"
        },
        {
          "internalType": "address",
          "name": "uniAddr",
          "type": "address"
        }
      ],
      "stateMutability": "view",
      "type": "function"
    },
    {
      "inputs": [
        {
          "internalType": "address",
          "name": "clgAddr",
          "type": "address"
        }
      ],
      "name": "getCollegeInfo",
      "outputs": [
        {
          "internalType": "address",
          "name": "addr",
          "type": "address"
        },
        {
          "internalType": "string",
          "name": "clgName",
          "type": "string"
        },
        {
          "internalType": "address",
          "name": "uniAddr",
          "type": "address"
        },
        {
          "internalType": "address[]",
          "name": "courses",
          "type": "address[]"
        },
        {
          "internalType": "bytes32[]",
          "name": "applications",
          "type": "bytes32[]"
        }
      ],
      "stateMutability": "view",
      "type": "function"
    },
    {
      "inputs": [
        {
          "internalType": "address",
          "name": "",
          "type": "address"
        }
      ],
      "name": "getCourse",
      "outputs": [
        {
          "internalType": "address",
          "name": "addr",
          "type": "address"
        },
        {
          "internalType": "uint256",
          "name": "totalSeats",
          "type": "uint256"
        },
        {
          "internalType": "uint256",
          "name": "availableSeats",
          "type": "uint256"
        },
        {
          "internalType": "enum DataContract.Coursetype",
          "name": "courseType",
          "type": "uint8"
        },
        {
          "internalType": "string",
          "name": "courseName",
          "type": "string"
        },
        {
          "internalType": "address",
          "name": "clgAddr",
          "type": "address"
        },
        {
          "internalType": "address",
          "name": "uniAddr",
          "type": "address"
        }
      ],
      "stateMutability": "view",
      "type": "function"
    },
    {
      "inputs": [
        {
          "internalType": "address",
          "name": "courseAddr",
          "type": "address"
        }
      ],
      "name": "getCourseInfo",
      "outputs": [
        {
          "internalType": "address",
          "name": "addr",
          "type": "address"
        },
        {
          "internalType": "uint256",
          "name": "totalSeats",
          "type": "uint256"
        },
        {
          "internalType": "uint256",
          "name": "availableSeats",
          "type": "uint256"
        },
        {
          "internalType": "enum DataContract.Coursetype",
          "name": "courseType",
          "type": "uint8"
        },
        {
          "internalType": "string",
          "name": "courseName",
          "type": "string"
        },
        {
          "internalType": "address",
          "name": "clgAddr",
          "type": "address"
        },
        {
          "internalType": "address",
          "name": "uniAddr",
          "type": "address"
        },
        {
          "internalType": "address[]",
          "name": "enrolledStudents",
          "type": "address[]"
        },
        {
          "internalType": "address[]",
          "name": "requestedStudents",
          "type": "address[]"
        }
      ],
      "stateMutability": "view",
      "type": "function"
    },
    {
      "inputs": [
        {
          "internalType": "address",
          "name": "",
          "type": "address"
        }
      ],
      "name": "getStudent",
      "outputs": [
        {
          "internalType": "address",
          "name": "addr",
          "type": "address"
        },
        {
          "internalType": "string",
          "name": "name",
          "type": "string"
        },
        {
          "internalType": "address",
          "name": "courseAddr",
          "type": "address"
        },
        {
          "internalType": "address",
          "name": "clgAddr",
          "type": "address"
        },
        {
          "internalType": "address",
          "name": "uniAddr",
          "type": "address"
        },
        {
          "internalType": "string",
          "name": "regNo",
          "type": "string"
        },
        {
          "internalType": "string",
          "name": "batch",
          "type": "string"
        }
      ],
      "stateMutability": "view",
      "type": "function"
    },
    {
      "inputs": [
        {
          "internalType": "address",
          "name": "studAddr",
          "type": "address"
        }
      ],
      "name": "getStudentInfo",
      "outputs": [
        {
          "internalType": "address",
          "name": "addr",
          "type": "address"
        },
        {
          "internalType": "string",
          "name": "name",
          "type": "string"
        },
        {
          "internalType": "address",
          "name": "courseAddr",
          "type": "address"
        },
        {
          "internalType": "address",
          "name": "clgAddr",
          "type": "address"
        },
        {
          "internalType": "address",
          "name": "uniAddr",
          "type": "address"
        },
        {
          "internalType": "string",
          "name": "regNo",
          "type": "string"
        },
        {
          "internalType": "string",
          "name": "batch",
          "type": "string"
        },
        {
          "internalType": "bytes32[]",
          "name": "migrationApplications",
          "type": "bytes32[]"
        }
      ],
      "stateMutability": "view",
      "type": "function"
    },
    {
      "inputs": [
        {
          "internalType": "address",
          "name": "courseAddress",
          "type": "address"
        },
        {
          "internalType": "bool",
          "name": "enrolled",
          "type": "bool"
        }
      ],
      "name": "getStudentList",
      "outputs": [
        {
          "internalType": "address[]",
          "name": "studetntList",
          "type": "address[]"
        }
      ],
      "stateMutability": "view",
      "type": "function"
    },
    {
      "inputs": [
        {
          "internalType": "address",
          "name": "",
          "type": "address"
        }
      ],
      "name": "getUniversity",
      "outputs": [
        {
          "internalType": "address",
          "name": "addr",
          "type": "address"
        },
        {
          "internalType": "string",
          "name": "uniName",
          "type": "string"
        }
      ],
      "stateMutability": "view",
      "type": "function"
    },
    {
      "inputs": [
        {
          "internalType": "address",
          "name": "uniAddr",
          "type": "address"
        }
      ],
      "name": "getUniversityInfo",
      "outputs": [
        {
          "internalType": "address",
          "name": "addr",
          "type": "address"
        },
        {
          "internalType": "string",
          "name": "uniName",
          "type": "string"
        },
        {
          "internalType": "address[]",
          "name": "colleges",
          "type": "address[]"
        },
        {
          "internalType": "bytes32[]",
          "name": "applications",
          "type": "bytes32[]"
        }
      ],
      "stateMutability": "view",
      "type": "function"
    },
    {
      "inputs": [
        {
          "internalType": "address",
          "name": "",
          "type": "address"
        }
      ],
      "name": "getUserType",
      "outputs": [
        {
          "internalType": "enum DataContract.UserType",
          "name": "",
          "type": "uint8"
        }
      ],
      "stateMutability": "view",
      "type": "function"
    },
    {
      "inputs": [
        {
          "internalType": "string",
          "name": "studentName",
          "type": "string"
        },
        {
          "internalType": "address",
          "name": "courseAddress",
          "type": "address"
        },
        {
          "internalType": "address",
          "name": "collegeAddress",
          "type": "address"
        },
        {
          "internalType": "address",
          "name": "universityAddress",
          "type": "address"
        }
      ],
      "name": "signup",
      "outputs": [],
      "stateMutability": "nonpayable",
      "type": "function"
    },
    {
      "inputs": [
        {
          "internalType": "address",
          "name": "",
          "type": "address"
        }
      ],
      "name": "userLoggedIn",
      "outputs": [
        {
          "internalType": "bool",
          "name": "",
          "type": "bool"
        }
      ],
      "stateMutability": "view",
      "type": "function"
    }
  ],
  "bytecode": "0x608060405234801561001057600080fd5b50336000806101000a81548173ffffffffffffffffffffffffffffffffffffffff021916908373ffffffffffffffffffffffffffffffffffffffff160217905550615207806100606000396000f3fe608060405234801561001057600080fd5b50600436106101165760003560e01c806394a59ea6116100a2578063a0a3e86011610071578063a0a3e86014610359578063c4d206b114610375578063de51eb38146103a8578063f597d994146103dc578063fa768071146103fa57610116565b806394a59ea6146102d457806394ae9894146103055780639b215642146103215780639b30f0dc1461033d57610116565b80634b82caec116100e95780634b82caec146101d55780636b7b44d71461020c5780638393a040146102425780638aaa7370146102745780638b3f863f146102a457610116565b8063079f24a01461011b578063182ab292146101535780632ef368a91461016f5780633d904eab146101a5575b600080fd5b61013560048036038101906101309190614372565b610416565b60405161014a99989796959493929190614b6a565b60405180910390f35b61016d60048036038101906101689190614486565b6107c0565b005b61018960048036038101906101849190614372565b610bd3565b60405161019c9796959493929190614af4565b60405180910390f35b6101bf60048036038101906101ba9190614446565b610d0a565b6040516101cc9190614c0c565b60405180910390f35b6101ef60048036038101906101ea9190614372565b611253565b604051610203989796959493929190614998565b60405180910390f35b61022660048036038101906102219190614372565b61165a565b6040516102399796959493929190614914565b60405180910390f35b61025c60048036038101906102579190614372565b6118b4565b60405161026b939291906148d6565b60405180910390f35b61028e60048036038101906102899190614372565b6119a6565b60405161029b9190614c2e565b60405180910390f35b6102be60048036038101906102b99190614372565b6119c6565b6040516102cb9190614c49565b60405180910390f35b6102ee60048036038101906102e99190614372565b6119e6565b6040516102fc9291906148a6565b60405180910390f35b61031f600480360381019061031a9190614606565b611ab2565b005b61033b600480360381019061033691906144f5565b611f2d565b005b610357600480360381019061035291906145aa565b611f87565b005b610373600480360381019061036e9190614522565b61237e565b005b61038f600480360381019061038a9190614372565b612a06565b60405161039f9493929190614a9a565b60405180910390f35b6103c260048036038101906103bd9190614372565b612c4d565b6040516103d3959493929190614a32565b60405180910390f35b6103e4612ef5565b6040516103f19190614c0c565b60405180910390f35b610414600480360381019061040f919061439f565b612f83565b005b60008060008060606000806060806000600360008c73ffffffffffffffffffffffffffffffffffffffff1673ffffffffffffffffffffffffffffffffffffffff168152602001908152602001600020604051806101200160405290816000820160009054906101000a900473ffffffffffffffffffffffffffffffffffffffff1673ffffffffffffffffffffffffffffffffffffffff1673ffffffffffffffffffffffffffffffffffffffff16815260200160018201548152602001600282015481526020016003820160009054906101000a900460ff166002811115610500576104ff614fbf565b5b600281111561051257610511614fbf565b5b815260200160048201805461052690614ee4565b80601f016020809104026020016040519081016040528092919081815260200182805461055290614ee4565b801561059f5780601f106105745761010080835404028352916020019161059f565b820191906000526020600020905b81548152906001019060200180831161058257829003601f168201915b505050505081526020016005820160009054906101000a900473ffffffffffffffffffffffffffffffffffffffff1673ffffffffffffffffffffffffffffffffffffffff1673ffffffffffffffffffffffffffffffffffffffff1681526020016006820160009054906101000a900473ffffffffffffffffffffffffffffffffffffffff1673ffffffffffffffffffffffffffffffffffffffff1673ffffffffffffffffffffffffffffffffffffffff168152602001600782018054806020026020016040519081016040528092919081815260200182805480156106d957602002820191906000526020600020905b8160009054906101000a900473ffffffffffffffffffffffffffffffffffffffff1673ffffffffffffffffffffffffffffffffffffffff168152602001906001019080831161068f575b505050505081526020016008820180548060200260200160405190810160405280929190818152602001828054801561076757602002820191906000526020600020905b8160009054906101000a900473ffffffffffffffffffffffffffffffffffffffff1673ffffffffffffffffffffffffffffffffffffffff168152602001906001019080831161071d575b5050505050815250509050806000015181602001518260400151836060015184608001518560a001518660c001518760e00151886101000151995099509950995099509950995099509950509193959799909294969850565b60001515600660008573ffffffffffffffffffffffffffffffffffffffff1673ffffffffffffffffffffffffffffffffffffffff16815260200190815260200160002060009054906101000a900460ff16151514610853576040517f08c379a000000000000000000000000000000000000000000000000000000000815260040161084a90614ca4565b60405180910390fd5b60006040518060a001604052808573ffffffffffffffffffffffffffffffffffffffff1681526020018481526020018373ffffffffffffffffffffffffffffffffffffffff168152602001600067ffffffffffffffff8111156108b9576108b861507b565b5b6040519080825280602002602001820160405280156108e75781602001602082028036833780820191505090505b508152602001600067ffffffffffffffff8111156109085761090761507b565b5b6040519080825280602002602001820160405280156109365781602001602082028036833780820191505090505b50815250905080600460008673ffffffffffffffffffffffffffffffffffffffff1673ffffffffffffffffffffffffffffffffffffffff16815260200190815260200160002060008201518160000160006101000a81548173ffffffffffffffffffffffffffffffffffffffff021916908373ffffffffffffffffffffffffffffffffffffffff16021790555060208201518160010190805190602001906109df9291906140c1565b5060408201518160020160006101000a81548173ffffffffffffffffffffffffffffffffffffffff021916908373ffffffffffffffffffffffffffffffffffffffff1602179055506060820151816003019080519060200190610a43929190614147565b506080820151816004019080519060200190610a609291906141d1565b509050506001600660008673ffffffffffffffffffffffffffffffffffffffff1673ffffffffffffffffffffffffffffffffffffffff16815260200190815260200160002060006101000a81548160ff0219169083151502179055506000600560008473ffffffffffffffffffffffffffffffffffffffff1673ffffffffffffffffffffffffffffffffffffffff168152602001908152602001600020905080600201859080600181540180825580915050600190039060005260206000200160009091909190916101000a81548173ffffffffffffffffffffffffffffffffffffffff021916908373ffffffffffffffffffffffffffffffffffffffff1602179055506001600860008773ffffffffffffffffffffffffffffffffffffffff1673ffffffffffffffffffffffffffffffffffffffff16815260200190815260200160002060006101000a81548160ff02191690836002811115610bc757610bc6614fbf565b5b02179055505050505050565b60036020528060005260406000206000915090508060000160009054906101000a900473ffffffffffffffffffffffffffffffffffffffff16908060010154908060020154908060030160009054906101000a900460ff1690806004018054610c3b90614ee4565b80601f0160208091040260200160405190810160405280929190818152602001828054610c6790614ee4565b8015610cb45780601f10610c8957610100808354040283529160200191610cb4565b820191906000526020600020905b815481529060010190602001808311610c9757829003601f168201915b5050505050908060050160009054906101000a900473ffffffffffffffffffffffffffffffffffffffff16908060060160009054906101000a900473ffffffffffffffffffffffffffffffffffffffff16905087565b60606000600860003373ffffffffffffffffffffffffffffffffffffffff1673ffffffffffffffffffffffffffffffffffffffff16815260200190815260200160002060009054906101000a900460ff16905060006002811115610d7157610d70614fbf565b5b816002811115610d8457610d83614fbf565b5b1415610fd457600115158315151415610eb657600960003373ffffffffffffffffffffffffffffffffffffffff1673ffffffffffffffffffffffffffffffffffffffff16815260200190815260200160002060008573ffffffffffffffffffffffffffffffffffffffff1673ffffffffffffffffffffffffffffffffffffffff16815260200190815260200160002060006001151515158152602001908152602001600020805480602002602001604051908101604052809291908181526020018280548015610ea957602002820191906000526020600020905b8160009054906101000a900473ffffffffffffffffffffffffffffffffffffffff1673ffffffffffffffffffffffffffffffffffffffff1681526020019060010190808311610e5f575b505050505091505061124d565b600960003373ffffffffffffffffffffffffffffffffffffffff1673ffffffffffffffffffffffffffffffffffffffff16815260200190815260200160002060008573ffffffffffffffffffffffffffffffffffffffff1673ffffffffffffffffffffffffffffffffffffffff168152602001908152602001600020600080151515158152602001908152602001600020805480602002602001604051908101604052809291908181526020018280548015610fc757602002820191906000526020600020905b8160009054906101000a900473ffffffffffffffffffffffffffffffffffffffff1673ffffffffffffffffffffffffffffffffffffffff1681526020019060010190808311610f7d575b505050505091505061124d565b60016002811115610fe857610fe7614fbf565b5b816002811115610ffb57610ffa614fbf565b5b141561124b5760011515831515141561112d57600a60003373ffffffffffffffffffffffffffffffffffffffff1673ffffffffffffffffffffffffffffffffffffffff16815260200190815260200160002060008573ffffffffffffffffffffffffffffffffffffffff1673ffffffffffffffffffffffffffffffffffffffff1681526020019081526020016000206000600115151515815260200190815260200160002080548060200260200160405190810160405280929190818152602001828054801561112057602002820191906000526020600020905b8160009054906101000a900473ffffffffffffffffffffffffffffffffffffffff1673ffffffffffffffffffffffffffffffffffffffff16815260200190600101908083116110d6575b505050505091505061124d565b600a60003373ffffffffffffffffffffffffffffffffffffffff1673ffffffffffffffffffffffffffffffffffffffff16815260200190815260200160002060008573ffffffffffffffffffffffffffffffffffffffff1673ffffffffffffffffffffffffffffffffffffffff16815260200190815260200160002060008015151515815260200190815260200160002080548060200260200160405190810160405280929190818152602001828054801561123e57602002820191906000526020600020905b8160009054906101000a900473ffffffffffffffffffffffffffffffffffffffff1673ffffffffffffffffffffffffffffffffffffffff16815260200190600101908083116111f4575b505050505091505061124d565b505b92915050565b60006060600080600060608060606000600260008b73ffffffffffffffffffffffffffffffffffffffff1673ffffffffffffffffffffffffffffffffffffffff168152602001908152602001600020604051806101000160405290816000820160009054906101000a900473ffffffffffffffffffffffffffffffffffffffff1673ffffffffffffffffffffffffffffffffffffffff1673ffffffffffffffffffffffffffffffffffffffff16815260200160018201805461131490614ee4565b80601f016020809104026020016040519081016040528092919081815260200182805461134090614ee4565b801561138d5780601f106113625761010080835404028352916020019161138d565b820191906000526020600020905b81548152906001019060200180831161137057829003601f168201915b505050505081526020016002820160009054906101000a900473ffffffffffffffffffffffffffffffffffffffff1673ffffffffffffffffffffffffffffffffffffffff1673ffffffffffffffffffffffffffffffffffffffff1681526020016003820160009054906101000a900473ffffffffffffffffffffffffffffffffffffffff1673ffffffffffffffffffffffffffffffffffffffff1673ffffffffffffffffffffffffffffffffffffffff1681526020016004820160009054906101000a900473ffffffffffffffffffffffffffffffffffffffff1673ffffffffffffffffffffffffffffffffffffffff1673ffffffffffffffffffffffffffffffffffffffff1681526020016005820180546114a890614ee4565b80601f01602080910402602001604051908101604052809291908181526020018280546114d490614ee4565b80156115215780601f106114f657610100808354040283529160200191611521565b820191906000526020600020905b81548152906001019060200180831161150457829003601f168201915b5050505050815260200160068201805461153a90614ee4565b80601f016020809104026020016040519081016040528092919081815260200182805461156690614ee4565b80156115b35780601f10611588576101008083540402835291602001916115b3565b820191906000526020600020905b81548152906001019060200180831161159657829003601f168201915b505050505081526020016007820180548060200260200160405190810160405280929190818152602001828054801561160b57602002820191906000526020600020905b8154815260200190600101908083116115f7575b5050505050815250509050806000015181602001518260400151836060015184608001518560a001518660c001518760e001519850985098509850985098509850985050919395975091939597565b60026020528060005260406000206000915090508060000160009054906101000a900473ffffffffffffffffffffffffffffffffffffffff16908060010180546116a390614ee4565b80601f01602080910402602001604051908101604052809291908181526020018280546116cf90614ee4565b801561171c5780601f106116f15761010080835404028352916020019161171c565b820191906000526020600020905b8154815290600101906020018083116116ff57829003601f168201915b5050505050908060020160009054906101000a900473ffffffffffffffffffffffffffffffffffffffff16908060030160009054906101000a900473ffffffffffffffffffffffffffffffffffffffff16908060040160009054906101000a900473ffffffffffffffffffffffffffffffffffffffff16908060050180546117a390614ee4565b80601f01602080910402602001604051908101604052809291908181526020018280546117cf90614ee4565b801561181c5780601f106117f15761010080835404028352916020019161181c565b820191906000526020600020905b8154815290600101906020018083116117ff57829003601f168201915b50505050509080600601805461183190614ee4565b80601f016020809104026020016040519081016040528092919081815260200182805461185d90614ee4565b80156118aa5780601f1061187f576101008083540402835291602001916118aa565b820191906000526020600020905b81548152906001019060200180831161188d57829003601f168201915b5050505050905087565b60046020528060005260406000206000915090508060000160009054906101000a900473ffffffffffffffffffffffffffffffffffffffff16908060010180546118fd90614ee4565b80601f016020809104026020016040519081016040528092919081815260200182805461192990614ee4565b80156119765780601f1061194b57610100808354040283529160200191611976565b820191906000526020600020905b81548152906001019060200180831161195957829003601f168201915b5050505050908060020160009054906101000a900473ffffffffffffffffffffffffffffffffffffffff16905083565b60076020528060005260406000206000915054906101000a900460ff1681565b60086020528060005260406000206000915054906101000a900460ff1681565b60056020528060005260406000206000915090508060000160009054906101000a900473ffffffffffffffffffffffffffffffffffffffff1690806001018054611a2f90614ee4565b80601f0160208091040260200160405190810160405280929190818152602001828054611a5b90614ee4565b8015611aa85780601f10611a7d57610100808354040283529160200191611aa8565b820191906000526020600020905b815481529060010190602001808311611a8b57829003601f168201915b5050505050905082565b60001515600660008773ffffffffffffffffffffffffffffffffffffffff1673ffffffffffffffffffffffffffffffffffffffff16815260200190815260200160002060009054906101000a900460ff16151514611b45576040517f08c379a0000000000000000000000000000000000000000000000000000000008152600401611b3c90614c64565b60405180910390fd5b6001600660008773ffffffffffffffffffffffffffffffffffffffff1673ffffffffffffffffffffffffffffffffffffffff16815260200190815260200160002060006101000a81548160ff02191690831515021790555060006040518061012001604052808773ffffffffffffffffffffffffffffffffffffffff168152602001838152602001838152602001866002811115611be657611be5614fbf565b5b81526020018881526020018573ffffffffffffffffffffffffffffffffffffffff1681526020018473ffffffffffffffffffffffffffffffffffffffff168152602001600067ffffffffffffffff811115611c4457611c4361507b565b5b604051908082528060200260200182016040528015611c725781602001602082028036833780820191505090505b508152602001600067ffffffffffffffff811115611c9357611c9261507b565b5b604051908082528060200260200182016040528015611cc15781602001602082028036833780820191505090505b5081525090506000600460008673ffffffffffffffffffffffffffffffffffffffff1673ffffffffffffffffffffffffffffffffffffffff168152602001908152602001600020905080600301879080600181540180825580915050600190039060005260206000200160009091909190916101000a81548173ffffffffffffffffffffffffffffffffffffffff021916908373ffffffffffffffffffffffffffffffffffffffff16021790555081600360008973ffffffffffffffffffffffffffffffffffffffff1673ffffffffffffffffffffffffffffffffffffffff16815260200190815260200160002060008201518160000160006101000a81548173ffffffffffffffffffffffffffffffffffffffff021916908373ffffffffffffffffffffffffffffffffffffffff160217905550602082015181600101556040820151816002015560608201518160030160006101000a81548160ff02191690836002811115611e3557611e34614fbf565b5b02179055506080820151816004019080519060200190611e569291906140c1565b5060a08201518160050160006101000a81548173ffffffffffffffffffffffffffffffffffffffff021916908373ffffffffffffffffffffffffffffffffffffffff16021790555060c08201518160060160006101000a81548173ffffffffffffffffffffffffffffffffffffffff021916908373ffffffffffffffffffffffffffffffffffffffff16021790555060e0820151816007019080519060200190611f01929190614147565b50610100820151816008019080519060200190611f1f929190614147565b509050505050505050505050565b80600760003373ffffffffffffffffffffffffffffffffffffffff1673ffffffffffffffffffffffffffffffffffffffff16815260200190815260200160002060006101000a81548160ff02191690831515021790555050565b60008054906101000a900473ffffffffffffffffffffffffffffffffffffffff1673ffffffffffffffffffffffffffffffffffffffff163373ffffffffffffffffffffffffffffffffffffffff1614612015576040517f08c379a000000000000000000000000000000000000000000000000000000000815260040161200c90614c84565b60405180910390fd5b60001515600660008373ffffffffffffffffffffffffffffffffffffffff1673ffffffffffffffffffffffffffffffffffffffff16815260200190815260200160002060009054906101000a900460ff161515146120a8576040517f08c379a000000000000000000000000000000000000000000000000000000000815260040161209f90614ca4565b60405180910390fd5b600060405180608001604052808373ffffffffffffffffffffffffffffffffffffffff168152602001848152602001600067ffffffffffffffff8111156120f2576120f161507b565b5b6040519080825280602002602001820160405280156121205781602001602082028036833780820191505090505b508152602001600067ffffffffffffffff8111156121415761214061507b565b5b60405190808252806020026020018201604052801561216f5781602001602082028036833780820191505090505b50815250905080600560008473ffffffffffffffffffffffffffffffffffffffff1673ffffffffffffffffffffffffffffffffffffffff16815260200190815260200160002060008201518160000160006101000a81548173ffffffffffffffffffffffffffffffffffffffff021916908373ffffffffffffffffffffffffffffffffffffffff16021790555060208201518160010190805190602001906122189291906140c1565b506040820151816002019080519060200190612235929190614147565b5060608201518160030190805190602001906122529291906141d1565b509050506001829080600181540180825580915050600190039060005260206000200160009091909190916101000a81548173ffffffffffffffffffffffffffffffffffffffff021916908373ffffffffffffffffffffffffffffffffffffffff1602179055506001600660008473ffffffffffffffffffffffffffffffffffffffff1673ffffffffffffffffffffffffffffffffffffffff16815260200190815260200160002060006101000a81548160ff0219169083151502179055506000600860008473ffffffffffffffffffffffffffffffffffffffff1673ffffffffffffffffffffffffffffffffffffffff16815260200190815260200160002060006101000a81548160ff0219169083600281111561237457612373614fbf565b5b0217905550505050565b60001515600660003373ffffffffffffffffffffffffffffffffffffffff1673ffffffffffffffffffffffffffffffffffffffff16815260200190815260200160002060009054906101000a900460ff16151514612411576040517f08c379a000000000000000000000000000000000000000000000000000000000815260040161240890614ca4565b60405180910390fd5b6000600360008573ffffffffffffffffffffffffffffffffffffffff1673ffffffffffffffffffffffffffffffffffffffff168152602001908152602001600020905060006040518061010001604052803373ffffffffffffffffffffffffffffffffffffffff16815260200188888080601f016020809104026020016040519081016040528093929190818152602001838380828437600081840152601f19601f8201169050808301925050505050505081526020018673ffffffffffffffffffffffffffffffffffffffff1681526020018573ffffffffffffffffffffffffffffffffffffffff1681526020018473ffffffffffffffffffffffffffffffffffffffff1681526020016040518060400160405280601081526020017f4e6f742041737369676e6564205965740000000000000000000000000000000081525081526020016040518060400160405280601081526020017f4e6f742041737369676e656420596574000000000000000000000000000000008152508152602001600067ffffffffffffffff8111156125ad576125ac61507b565b5b6040519080825280602002602001820160405280156125db5781602001602082028036833780820191505090505b50815250905080600260003373ffffffffffffffffffffffffffffffffffffffff1673ffffffffffffffffffffffffffffffffffffffff16815260200190815260200160002060008201518160000160006101000a81548173ffffffffffffffffffffffffffffffffffffffff021916908373ffffffffffffffffffffffffffffffffffffffff16021790555060208201518160010190805190602001906126849291906140c1565b5060408201518160020160006101000a81548173ffffffffffffffffffffffffffffffffffffffff021916908373ffffffffffffffffffffffffffffffffffffffff16021790555060608201518160030160006101000a81548173ffffffffffffffffffffffffffffffffffffffff021916908373ffffffffffffffffffffffffffffffffffffffff16021790555060808201518160040160006101000a81548173ffffffffffffffffffffffffffffffffffffffff021916908373ffffffffffffffffffffffffffffffffffffffff16021790555060a08201518160050190805190602001906127769291906140c1565b5060c08201518160060190805190602001906127939291906140c1565b5060e08201518160070190805190602001906127b09291906141d1565b5090505081600801339080600181540180825580915050600190039060005260206000200160009091909190916101000a81548173ffffffffffffffffffffffffffffffffffffffff021916908373ffffffffffffffffffffffffffffffffffffffff160217905550600a60008573ffffffffffffffffffffffffffffffffffffffff1673ffffffffffffffffffffffffffffffffffffffff16815260200190815260200160002060008673ffffffffffffffffffffffffffffffffffffffff1673ffffffffffffffffffffffffffffffffffffffff168152602001908152602001600020600080151515158152602001908152602001600020339080600181540180825580915050600190039060005260206000200160009091909190916101000a81548173ffffffffffffffffffffffffffffffffffffffff021916908373ffffffffffffffffffffffffffffffffffffffff160217905550600960008473ffffffffffffffffffffffffffffffffffffffff1673ffffffffffffffffffffffffffffffffffffffff16815260200190815260200160002060008673ffffffffffffffffffffffffffffffffffffffff1673ffffffffffffffffffffffffffffffffffffffff168152602001908152602001600020600080151515158152602001908152602001600020339080600181540180825580915050600190039060005260206000200160009091909190916101000a81548173ffffffffffffffffffffffffffffffffffffffff021916908373ffffffffffffffffffffffffffffffffffffffff16021790555050505050505050565b600060608060606000600560008773ffffffffffffffffffffffffffffffffffffffff1673ffffffffffffffffffffffffffffffffffffffff1681526020019081526020016000206040518060800160405290816000820160009054906101000a900473ffffffffffffffffffffffffffffffffffffffff1673ffffffffffffffffffffffffffffffffffffffff1673ffffffffffffffffffffffffffffffffffffffff168152602001600182018054612abf90614ee4565b80601f0160208091040260200160405190810160405280929190818152602001828054612aeb90614ee4565b8015612b385780601f10612b0d57610100808354040283529160200191612b38565b820191906000526020600020905b815481529060010190602001808311612b1b57829003601f168201915b5050505050815260200160028201805480602002602001604051908101604052809291908181526020018280548015612bc657602002820191906000526020600020905b8160009054906101000a900473ffffffffffffffffffffffffffffffffffffffff1673ffffffffffffffffffffffffffffffffffffffff1681526020019060010190808311612b7c575b5050505050815260200160038201805480602002602001604051908101604052809291908181526020018280548015612c1e57602002820191906000526020600020905b815481526020019060010190808311612c0a575b505050505081525050905080600001518160200151826040015183606001519450945094509450509193509193565b6000606060006060806000600460008873ffffffffffffffffffffffffffffffffffffffff1673ffffffffffffffffffffffffffffffffffffffff1681526020019081526020016000206040518060a00160405290816000820160009054906101000a900473ffffffffffffffffffffffffffffffffffffffff1673ffffffffffffffffffffffffffffffffffffffff1673ffffffffffffffffffffffffffffffffffffffff168152602001600182018054612d0890614ee4565b80601f0160208091040260200160405190810160405280929190818152602001828054612d3490614ee4565b8015612d815780601f10612d5657610100808354040283529160200191612d81565b820191906000526020600020905b815481529060010190602001808311612d6457829003601f168201915b505050505081526020016002820160009054906101000a900473ffffffffffffffffffffffffffffffffffffffff1673ffffffffffffffffffffffffffffffffffffffff1673ffffffffffffffffffffffffffffffffffffffff16815260200160038201805480602002602001604051908101604052809291908181526020018280548015612e6557602002820191906000526020600020905b8160009054906101000a900473ffffffffffffffffffffffffffffffffffffffff1673ffffffffffffffffffffffffffffffffffffffff1681526020019060010190808311612e1b575b5050505050815260200160048201805480602002602001604051908101604052809291908181526020018280548015612ebd57602002820191906000526020600020905b815481526020019060010190808311612ea9575b505050505081525050905080600001518160200151826040015183606001518460800151955095509550955095505091939590929450565b60606001805480602002602001604051908101604052809291908181526020018280548015612f7957602002820191906000526020600020905b8160009054906101000a900473ffffffffffffffffffffffffffffffffffffffff1673ffffffffffffffffffffffffffffffffffffffff1681526020019060010190808311612f2f575b5050505050905090565b60001515600660008773ffffffffffffffffffffffffffffffffffffffff1673ffffffffffffffffffffffffffffffffffffffff16815260200190815260200160002060009054906101000a900460ff16151514613016576040517f08c379a000000000000000000000000000000000000000000000000000000000815260040161300d90614ca4565b60405180910390fd5b6000600260008773ffffffffffffffffffffffffffffffffffffffff1673ffffffffffffffffffffffffffffffffffffffff168152602001908152602001600020604051806101000160405290816000820160009054906101000a900473ffffffffffffffffffffffffffffffffffffffff1673ffffffffffffffffffffffffffffffffffffffff1673ffffffffffffffffffffffffffffffffffffffff1681526020016001820180546130c990614ee4565b80601f01602080910402602001604051908101604052809291908181526020018280546130f590614ee4565b80156131425780601f1061311757610100808354040283529160200191613142565b820191906000526020600020905b81548152906001019060200180831161312557829003601f168201915b505050505081526020016002820160009054906101000a900473ffffffffffffffffffffffffffffffffffffffff1673ffffffffffffffffffffffffffffffffffffffff1673ffffffffffffffffffffffffffffffffffffffff1681526020016003820160009054906101000a900473ffffffffffffffffffffffffffffffffffffffff1673ffffffffffffffffffffffffffffffffffffffff1673ffffffffffffffffffffffffffffffffffffffff1681526020016004820160009054906101000a900473ffffffffffffffffffffffffffffffffffffffff1673ffffffffffffffffffffffffffffffffffffffff1673ffffffffffffffffffffffffffffffffffffffff16815260200160058201805461325d90614ee4565b80601f016020809104026020016040519081016040528092919081815260200182805461328990614ee4565b80156132d65780601f106132ab576101008083540402835291602001916132d6565b820191906000526020600020905b8154815290600101906020018083116132b957829003601f168201915b505050505081526020016006820180546132ef90614ee4565b80601f016020809104026020016040519081016040528092919081815260200182805461331b90614ee4565b80156133685780601f1061333d57610100808354040283529160200191613368565b820191906000526020600020905b81548152906001019060200180831161334b57829003601f168201915b50505050508152602001600782018054806020026020016040519081016040528092919081815260200182805480156133c057602002820191906000526020600020905b8154815260200190600101908083116133ac575b505050505081525050905061346e86826020015189846060015185608001518a8a8080601f016020809104026020016040519081016040528093929190818152602001838380828437600081840152601f19601f8201169050808301925050505050505089898080601f016020809104026020016040519081016040528093929190818152602001838380828437600081840152601f19601f82011690508083019250505050505050613a9c565b6000600a6000836060015173ffffffffffffffffffffffffffffffffffffffff1673ffffffffffffffffffffffffffffffffffffffff16815260200190815260200160002060008973ffffffffffffffffffffffffffffffffffffffff1673ffffffffffffffffffffffffffffffffffffffff168152602001908152602001600020600080151515158152602001908152602001600020905060008180549050905060005b8181101561368f578873ffffffffffffffffffffffffffffffffffffffff168382815481106135455761354461504c565b5b9060005260206000200160009054906101000a900473ffffffffffffffffffffffffffffffffffffffff1673ffffffffffffffffffffffffffffffffffffffff16141561367c578260018361359a9190614da8565b815481106135ab576135aa61504c565b5b9060005260206000200160009054906101000a900473ffffffffffffffffffffffffffffffffffffffff168382815481106135e9576135e861504c565b5b9060005260206000200160006101000a81548173ffffffffffffffffffffffffffffffffffffffff021916908373ffffffffffffffffffffffffffffffffffffffff160217905550828054806136425761364161501d565b5b6001900381819060005260206000200160006101000a81549073ffffffffffffffffffffffffffffffffffffffff0219169055905561368f565b808061368790614f47565b915050613513565b50600060096000856080015173ffffffffffffffffffffffffffffffffffffffff1673ffffffffffffffffffffffffffffffffffffffff16815260200190815260200160002060008b73ffffffffffffffffffffffffffffffffffffffff1673ffffffffffffffffffffffffffffffffffffffff168152602001908152602001600020600080151515158152602001908152602001600020905060008180549050905060005b818110156138b1578a73ffffffffffffffffffffffffffffffffffffffff168382815481106137675761376661504c565b5b9060005260206000200160009054906101000a900473ffffffffffffffffffffffffffffffffffffffff1673ffffffffffffffffffffffffffffffffffffffff16141561389e57826001836137bc9190614da8565b815481106137cd576137cc61504c565b5b9060005260206000200160009054906101000a900473ffffffffffffffffffffffffffffffffffffffff1683828154811061380b5761380a61504c565b5b9060005260206000200160006101000a81548173ffffffffffffffffffffffffffffffffffffffff021916908373ffffffffffffffffffffffffffffffffffffffff160217905550828054806138645761386361501d565b5b6001900381819060005260206000200160006101000a81549073ffffffffffffffffffffffffffffffffffffffff021916905590556138b1565b80806138a990614f47565b915050613735565b506000600360008d73ffffffffffffffffffffffffffffffffffffffff1673ffffffffffffffffffffffffffffffffffffffff168152602001908152602001600020905060008160080180549050905060005b81811015613a8c578c73ffffffffffffffffffffffffffffffffffffffff168360080182815481106139395761393861504c565b5b9060005260206000200160009054906101000a900473ffffffffffffffffffffffffffffffffffffffff1673ffffffffffffffffffffffffffffffffffffffff161415613a7957826008016001836139919190614da8565b815481106139a2576139a161504c565b5b9060005260206000200160009054906101000a900473ffffffffffffffffffffffffffffffffffffffff168360080182815481106139e3576139e261504c565b5b9060005260206000200160006101000a81548173ffffffffffffffffffffffffffffffffffffffff021916908373ffffffffffffffffffffffffffffffffffffffff16021790555082600801805480613a3f57613a3e61501d565b5b6001900381819060005260206000200160006101000a81549073ffffffffffffffffffffffffffffffffffffffff02191690559055613a8c565b8080613a8490614f47565b915050613904565b5050505050505050505050505050565b60006040518061010001604052808973ffffffffffffffffffffffffffffffffffffffff1681526020018881526020018773ffffffffffffffffffffffffffffffffffffffff1681526020018673ffffffffffffffffffffffffffffffffffffffff1681526020018573ffffffffffffffffffffffffffffffffffffffff168152602001848152602001838152602001600067ffffffffffffffff811115613b4757613b4661507b565b5b604051908082528060200260200182016040528015613b755781602001602082028036833780820191505090505b50815250905080600260008a73ffffffffffffffffffffffffffffffffffffffff1673ffffffffffffffffffffffffffffffffffffffff16815260200190815260200160002060008201518160000160006101000a81548173ffffffffffffffffffffffffffffffffffffffff021916908373ffffffffffffffffffffffffffffffffffffffff1602179055506020820151816001019080519060200190613c1e9291906140c1565b5060408201518160020160006101000a81548173ffffffffffffffffffffffffffffffffffffffff021916908373ffffffffffffffffffffffffffffffffffffffff16021790555060608201518160030160006101000a81548173ffffffffffffffffffffffffffffffffffffffff021916908373ffffffffffffffffffffffffffffffffffffffff16021790555060808201518160040160006101000a81548173ffffffffffffffffffffffffffffffffffffffff021916908373ffffffffffffffffffffffffffffffffffffffff16021790555060a0820151816005019080519060200190613d109291906140c1565b5060c0820151816006019080519060200190613d2d9291906140c1565b5060e0820151816007019080519060200190613d4a9291906141d1565b509050506001600660008a73ffffffffffffffffffffffffffffffffffffffff1673ffffffffffffffffffffffffffffffffffffffff16815260200190815260200160002060006101000a81548160ff0219169083151502179055506000600360008873ffffffffffffffffffffffffffffffffffffffff1673ffffffffffffffffffffffffffffffffffffffff168152602001908152602001600020905080600701899080600181540180825580915050600190039060005260206000200160009091909190916101000a81548173ffffffffffffffffffffffffffffffffffffffff021916908373ffffffffffffffffffffffffffffffffffffffff160217905550806002016000815480929190613e6390614eba565b91905055506002600860008b73ffffffffffffffffffffffffffffffffffffffff1673ffffffffffffffffffffffffffffffffffffffff16815260200190815260200160002060006101000a81548160ff02191690836002811115613ecb57613eca614fbf565b5b0217905550600960008673ffffffffffffffffffffffffffffffffffffffff1673ffffffffffffffffffffffffffffffffffffffff16815260200190815260200160002060008873ffffffffffffffffffffffffffffffffffffffff1673ffffffffffffffffffffffffffffffffffffffff16815260200190815260200160002060006001151515158152602001908152602001600020899080600181540180825580915050600190039060005260206000200160009091909190916101000a81548173ffffffffffffffffffffffffffffffffffffffff021916908373ffffffffffffffffffffffffffffffffffffffff160217905550600a60008773ffffffffffffffffffffffffffffffffffffffff1673ffffffffffffffffffffffffffffffffffffffff16815260200190815260200160002060008873ffffffffffffffffffffffffffffffffffffffff1673ffffffffffffffffffffffffffffffffffffffff16815260200190815260200160002060006001151515158152602001908152602001600020899080600181540180825580915050600190039060005260206000200160009091909190916101000a81548173ffffffffffffffffffffffffffffffffffffffff021916908373ffffffffffffffffffffffffffffffffffffffff160217905550505050505050505050565b8280546140cd90614ee4565b90600052602060002090601f0160209004810192826140ef5760008555614136565b82601f1061410857805160ff1916838001178555614136565b82800160010185558215614136579182015b8281111561413557825182559160200191906001019061411a565b5b509050614143919061421e565b5090565b8280548282559060005260206000209081019282156141c0579160200282015b828111156141bf5782518260006101000a81548173ffffffffffffffffffffffffffffffffffffffff021916908373ffffffffffffffffffffffffffffffffffffffff16021790555091602001919060010190614167565b5b5090506141cd919061421e565b5090565b82805482825590600052602060002090810192821561420d579160200282015b8281111561420c5782518255916020019190600101906141f1565b5b50905061421a919061423b565b5090565b5b8082111561423757600081600090555060010161421f565b5090565b5b8082111561425457600081600090555060010161423c565b5090565b600061426b61426684614ce9565b614cc4565b905082815260208101848484011115614287576142866150b9565b5b614292848285614e78565b509392505050565b6000813590506142a98161517c565b92915050565b6000813590506142be81615193565b92915050565b6000813590506142d3816151aa565b92915050565b60008083601f8401126142ef576142ee6150af565b5b8235905067ffffffffffffffff81111561430c5761430b6150aa565b5b602083019150836001820283011115614328576143276150b4565b5b9250929050565b600082601f830112614344576143436150af565b5b8135614354848260208601614258565b91505092915050565b60008135905061436c816151ba565b92915050565b600060208284031215614388576143876150c3565b5b60006143968482850161429a565b91505092915050565b600080600080600080608087890312156143bc576143bb6150c3565b5b60006143ca89828a0161429a565b96505060206143db89828a0161429a565b955050604087013567ffffffffffffffff8111156143fc576143fb6150be565b5b61440889828a016142d9565b9450945050606087013567ffffffffffffffff81111561442b5761442a6150be565b5b61443789828a016142d9565b92509250509295509295509295565b6000806040838503121561445d5761445c6150c3565b5b600061446b8582860161429a565b925050602061447c858286016142af565b9150509250929050565b60008060006060848603121561449f5761449e6150c3565b5b60006144ad8682870161429a565b935050602084013567ffffffffffffffff8111156144ce576144cd6150be565b5b6144da8682870161432f565b92505060406144eb8682870161429a565b9150509250925092565b60006020828403121561450b5761450a6150c3565b5b6000614519848285016142af565b91505092915050565b60008060008060006080868803121561453e5761453d6150c3565b5b600086013567ffffffffffffffff81111561455c5761455b6150be565b5b614568888289016142d9565b9550955050602061457b8882890161429a565b935050604061458c8882890161429a565b925050606061459d8882890161429a565b9150509295509295909350565b600080604083850312156145c1576145c06150c3565b5b600083013567ffffffffffffffff8111156145df576145de6150be565b5b6145eb8582860161432f565b92505060206145fc8582860161429a565b9150509250929050565b60008060008060008060c08789031215614623576146226150c3565b5b600087013567ffffffffffffffff811115614641576146406150be565b5b61464d89828a0161432f565b965050602061465e89828a0161429a565b955050604061466f89828a016142c4565b945050606061468089828a0161429a565b935050608061469189828a0161429a565b92505060a06146a289828a0161435d565b9150509295509295509295565b60006146bb83836146df565b60208301905092915050565b60006146d383836147c8565b60208301905092915050565b6146e881614ddc565b82525050565b6146f781614ddc565b82525050565b600061470882614d3a565b6147128185614d75565b935061471d83614d1a565b8060005b8381101561474e57815161473588826146af565b975061474083614d5b565b925050600181019050614721565b5085935050505092915050565b600061476682614d45565b6147708185614d86565b935061477b83614d2a565b8060005b838110156147ac57815161479388826146c7565b975061479e83614d68565b92505060018101905061477f565b5085935050505092915050565b6147c281614dee565b82525050565b6147d181614dfa565b82525050565b6147e081614e54565b82525050565b6147ef81614e66565b82525050565b600061480082614d50565b61480a8185614d97565b935061481a818560208601614e87565b614823816150c8565b840191505092915050565b600061483b600c83614d97565b9150614846826150d9565b602082019050919050565b600061485e600e83614d97565b915061486982615102565b602082019050919050565b6000614881600a83614d97565b915061488c8261512b565b602082019050919050565b6148a081614e4a565b82525050565b60006040820190506148bb60008301856146ee565b81810360208301526148cd81846147f5565b90509392505050565b60006060820190506148eb60008301866146ee565b81810360208301526148fd81856147f5565b905061490c60408301846146ee565b949350505050565b600060e082019050614929600083018a6146ee565b818103602083015261493b81896147f5565b905061494a60408301886146ee565b61495760608301876146ee565b61496460808301866146ee565b81810360a083015261497681856147f5565b905081810360c083015261498a81846147f5565b905098975050505050505050565b6000610100820190506149ae600083018b6146ee565b81810360208301526149c0818a6147f5565b90506149cf60408301896146ee565b6149dc60608301886146ee565b6149e960808301876146ee565b81810360a08301526149fb81866147f5565b905081810360c0830152614a0f81856147f5565b905081810360e0830152614a23818461475b565b90509998505050505050505050565b600060a082019050614a4760008301886146ee565b8181036020830152614a5981876147f5565b9050614a6860408301866146ee565b8181036060830152614a7a81856146fd565b90508181036080830152614a8e818461475b565b90509695505050505050565b6000608082019050614aaf60008301876146ee565b8181036020830152614ac181866147f5565b90508181036040830152614ad581856146fd565b90508181036060830152614ae9818461475b565b905095945050505050565b600060e082019050614b09600083018a6146ee565b614b166020830189614897565b614b236040830188614897565b614b3060608301876147d7565b8181036080830152614b4281866147f5565b9050614b5160a08301856146ee565b614b5e60c08301846146ee565b98975050505050505050565b600061012082019050614b80600083018c6146ee565b614b8d602083018b614897565b614b9a604083018a614897565b614ba760608301896147d7565b8181036080830152614bb981886147f5565b9050614bc860a08301876146ee565b614bd560c08301866146ee565b81810360e0830152614be781856146fd565b9050818103610100830152614bfc81846146fd565b90509a9950505050505050505050565b60006020820190508181036000830152614c2681846146fd565b905092915050565b6000602082019050614c4360008301846147b9565b92915050565b6000602082019050614c5e60008301846147e6565b92915050565b60006020820190508181036000830152614c7d8161482e565b9050919050565b60006020820190508181036000830152614c9d81614851565b9050919050565b60006020820190508181036000830152614cbd81614874565b9050919050565b6000614cce614cdf565b9050614cda8282614f16565b919050565b6000604051905090565b600067ffffffffffffffff821115614d0457614d0361507b565b5b614d0d826150c8565b9050602081019050919050565b6000819050602082019050919050565b6000819050602082019050919050565b600081519050919050565b600081519050919050565b600081519050919050565b6000602082019050919050565b6000602082019050919050565b600082825260208201905092915050565b600082825260208201905092915050565b600082825260208201905092915050565b6000614db382614e4a565b9150614dbe83614e4a565b925082821015614dd157614dd0614f90565b5b828203905092915050565b6000614de782614e2a565b9050919050565b60008115159050919050565b6000819050919050565b6000819050614e1282615154565b919050565b6000819050614e2582615168565b919050565b600073ffffffffffffffffffffffffffffffffffffffff82169050919050565b6000819050919050565b6000614e5f82614e04565b9050919050565b6000614e7182614e17565b9050919050565b82818337600083830152505050565b60005b83811015614ea5578082015181840152602081019050614e8a565b83811115614eb4576000848401525b50505050565b6000614ec582614e4a565b91506000821415614ed957614ed8614f90565b5b600182039050919050565b60006002820490506001821680614efc57607f821691505b60208210811415614f1057614f0f614fee565b5b50919050565b614f1f826150c8565b810181811067ffffffffffffffff82111715614f3e57614f3d61507b565b5b80604052505050565b6000614f5282614e4a565b91507fffffffffffffffffffffffffffffffffffffffffffffffffffffffffffffffff821415614f8557614f84614f90565b5b600182019050919050565b7f4e487b7100000000000000000000000000000000000000000000000000000000600052601160045260246000fd5b7f4e487b7100000000000000000000000000000000000000000000000000000000600052602160045260246000fd5b7f4e487b7100000000000000000000000000000000000000000000000000000000600052602260045260246000fd5b7f4e487b7100000000000000000000000000000000000000000000000000000000600052603160045260246000fd5b7f4e487b7100000000000000000000000000000000000000000000000000000000600052603260045260246000fd5b7f4e487b7100000000000000000000000000000000000000000000000000000000600052604160045260246000fd5b600080fd5b600080fd5b600080fd5b600080fd5b600080fd5b600080fd5b6000601f19601f8301169050919050565b7f436f757273652045786973740000000000000000000000000000000000000000600082015250565b7f556e617574686f72697a65642121000000000000000000000000000000000000600082015250565b7f5573657220457869737400000000000000000000000000000000000000000000600082015250565b6003811061516557615164614fbf565b5b50565b6003811061517957615178614fbf565b5b50565b61518581614ddc565b811461519057600080fd5b50565b61519c81614dee565b81146151a757600080fd5b50565b600381106151b757600080fd5b50565b6151c381614e4a565b81146151ce57600080fd5b5056fea2646970667358221220e1a4112e8590106b7a6419cc956ce124787bb90eb49597b9052a1caede3fe56e64736f6c63430008070033",
  "linkReferences": {},
  "deployedLinkReferences": {}
}