{
  "_format": "hh-sol-artifact-1",
  "contractName": "DataContract",
  "sourceName": "contracts/DefaultData.sol",
  "abi": [
    {
      "inputs": [],
      "stateMutability": "nonpayable",
      "type": "constructor"
    },
    {
      "inputs": [
        {
          "internalType": "address",
          "name": "collegeAddress",
          "type": "address"
        },
        {
          "internalType": "string",
          "name": "collegeName",
          "type": "string"
        },
        {
          "internalType": "address",
          "name": "universityAddress",
          "type": "address"
        }
      ],
      "name": "addCollege",
      "outputs": [],
      "stateMutability": "nonpayable",
      "type": "function"
    },
    {
      "inputs": [
        {
          "internalType": "string",
          "name": "courseName",
          "type": "string"
        },
        {
          "internalType": "address",
          "name": "courseAddress",
          "type": "address"
        },
        {
          "internalType": "enum DataContract.Coursetype",
          "name": "courseType",
          "type": "uint8"
        },
        {
          "internalType": "address",
          "name": "collegeAddress",
          "type": "address"
        },
        {
          "internalType": "address",
          "name": "universityAddress",
          "type": "address"
        },
        {
          "internalType": "uint256",
          "name": "seats",
          "type": "uint256"
        }
      ],
      "name": "addCourse",
      "outputs": [],
      "stateMutability": "nonpayable",
      "type": "function"
    },
    {
      "inputs": [
        {
          "internalType": "string",
          "name": "universityName",
          "type": "string"
        },
        {
          "internalType": "address",
          "name": "universityAddress",
          "type": "address"
        }
      ],
      "name": "addUniversity",
      "outputs": [],
      "stateMutability": "nonpayable",
      "type": "function"
    },
    {
      "inputs": [],
      "name": "getAllUniversities",
      "outputs": [
        {
          "internalType": "address[]",
          "name": "",
          "type": "address[]"
        }
      ],
      "stateMutability": "view",
      "type": "function"
    },
    {
      "inputs": [
        {
          "internalType": "address",
          "name": "",
          "type": "address"
        }
      ],
      "name": "getCollege",
      "outputs": [
        {
          "internalType": "address",
          "name": "addr",
          "type": "address"
        },
        {
          "internalType": "string",
          "name": "clgName",
          "type": "string"
        },
        {
          "internalType": "address",
          "name": "uniAddr",
          "type": "address"
        }
      ],
      "stateMutability": "view",
      "type": "function"
    },
    {
      "inputs": [
        {
          "internalType": "address",
          "name": "clgAddr",
          "type": "address"
        }
      ],
      "name": "getCollegeInfo",
      "outputs": [
        {
          "internalType": "address",
          "name": "addr",
          "type": "address"
        },
        {
          "internalType": "string",
          "name": "clgName",
          "type": "string"
        },
        {
          "internalType": "address",
          "name": "uniAddr",
          "type": "address"
        },
        {
          "internalType": "address[]",
          "name": "courses",
          "type": "address[]"
        },
        {
          "internalType": "bytes32[]",
          "name": "applications",
          "type": "bytes32[]"
        }
      ],
      "stateMutability": "view",
      "type": "function"
    },
    {
      "inputs": [
        {
          "internalType": "address",
          "name": "",
          "type": "address"
        }
      ],
      "name": "getCourse",
      "outputs": [
        {
          "internalType": "address",
          "name": "addr",
          "type": "address"
        },
        {
          "internalType": "uint256",
          "name": "totalSeats",
          "type": "uint256"
        },
        {
          "internalType": "uint256",
          "name": "availableSeats",
          "type": "uint256"
        },
        {
          "internalType": "enum DataContract.Coursetype",
          "name": "courseType",
          "type": "uint8"
        },
        {
          "internalType": "string",
          "name": "courseName",
          "type": "string"
        },
        {
          "internalType": "address",
          "name": "clgAddr",
          "type": "address"
        },
        {
          "internalType": "address",
          "name": "uniAddr",
          "type": "address"
        }
      ],
      "stateMutability": "view",
      "type": "function"
    },
    {
      "inputs": [
        {
          "internalType": "address",
          "name": "courseAddr",
          "type": "address"
        }
      ],
      "name": "getCourseInfo",
      "outputs": [
        {
          "internalType": "address",
          "name": "addr",
          "type": "address"
        },
        {
          "internalType": "uint256",
          "name": "totalSeats",
          "type": "uint256"
        },
        {
          "internalType": "uint256",
          "name": "availableSeats",
          "type": "uint256"
        },
        {
          "internalType": "enum DataContract.Coursetype",
          "name": "courseType",
          "type": "uint8"
        },
        {
          "internalType": "string",
          "name": "courseName",
          "type": "string"
        },
        {
          "internalType": "address",
          "name": "clgAddr",
          "type": "address"
        },
        {
          "internalType": "address",
          "name": "uniAddr",
          "type": "address"
        },
        {
          "internalType": "address[]",
          "name": "enrolledStudents",
          "type": "address[]"
        },
        {
          "internalType": "address[]",
          "name": "requestedStudents",
          "type": "address[]"
        }
      ],
      "stateMutability": "view",
      "type": "function"
    },
    {
      "inputs": [
        {
          "internalType": "address",
          "name": "",
          "type": "address"
        }
      ],
      "name": "getStudent",
      "outputs": [
        {
          "internalType": "address",
          "name": "addr",
          "type": "address"
        },
        {
          "internalType": "string",
          "name": "name",
          "type": "string"
        },
        {
          "internalType": "address",
          "name": "courseAddr",
          "type": "address"
        },
        {
          "internalType": "address",
          "name": "clgAddr",
          "type": "address"
        },
        {
          "internalType": "address",
          "name": "uniAddr",
          "type": "address"
        },
        {
          "internalType": "string",
          "name": "regNo",
          "type": "string"
        },
        {
          "internalType": "string",
          "name": "batch",
          "type": "string"
        }
      ],
      "stateMutability": "view",
      "type": "function"
    },
    {
      "inputs": [
        {
          "internalType": "address",
          "name": "studAddr",
          "type": "address"
        }
      ],
      "name": "getStudentInfo",
      "outputs": [
        {
          "internalType": "address",
          "name": "addr",
          "type": "address"
        },
        {
          "internalType": "string",
          "name": "name",
          "type": "string"
        },
        {
          "internalType": "address",
          "name": "courseAddr",
          "type": "address"
        },
        {
          "internalType": "address",
          "name": "clgAddr",
          "type": "address"
        },
        {
          "internalType": "address",
          "name": "uniAddr",
          "type": "address"
        },
        {
          "internalType": "string",
          "name": "regNo",
          "type": "string"
        },
        {
          "internalType": "string",
          "name": "batch",
          "type": "string"
        },
        {
          "internalType": "bytes32[]",
          "name": "migrationApplications",
          "type": "bytes32[]"
        }
      ],
      "stateMutability": "view",
      "type": "function"
    },
    {
      "inputs": [
        {
          "internalType": "address",
          "name": "",
          "type": "address"
        }
      ],
      "name": "getUniversity",
      "outputs": [
        {
          "internalType": "address",
          "name": "addr",
          "type": "address"
        },
        {
          "internalType": "string",
          "name": "uniName",
          "type": "string"
        }
      ],
      "stateMutability": "view",
      "type": "function"
    },
    {
      "inputs": [
        {
          "internalType": "address",
          "name": "uniAddr",
          "type": "address"
        }
      ],
      "name": "getUniversityInfo",
      "outputs": [
        {
          "internalType": "address",
          "name": "addr",
          "type": "address"
        },
        {
          "internalType": "string",
          "name": "uniName",
          "type": "string"
        },
        {
          "internalType": "address[]",
          "name": "colleges",
          "type": "address[]"
        },
        {
          "internalType": "bytes32[]",
          "name": "applications",
          "type": "bytes32[]"
        }
      ],
      "stateMutability": "view",
      "type": "function"
    },
    {
      "inputs": [
        {
          "internalType": "address",
          "name": "",
          "type": "address"
        }
      ],
      "name": "getUserType",
      "outputs": [
        {
          "internalType": "enum DataContract.UserType",
          "name": "",
          "type": "uint8"
        }
      ],
      "stateMutability": "view",
      "type": "function"
    },
    {
      "inputs": [
        {
          "internalType": "address",
          "name": "",
          "type": "address"
        }
      ],
      "name": "userLoggedIn",
      "outputs": [
        {
          "internalType": "bool",
          "name": "",
          "type": "bool"
        }
      ],
      "stateMutability": "view",
      "type": "function"
    }
  ],
  "bytecode": "0x608060405234801561001057600080fd5b50336000806101000a81548173ffffffffffffffffffffffffffffffffffffffff021916908373ffffffffffffffffffffffffffffffffffffffff160217905550613092806100606000396000f3fe608060405234801561001057600080fd5b50600436106100ea5760003560e01c80638b3f863f1161008c5780639b30f0dc116100665780639b30f0dc146102c5578063c4d206b1146102e1578063de51eb3814610314578063f597d99414610348576100ea565b80638b3f863f1461024857806394a59ea61461027857806394ae9894146102a9576100ea565b80634b82caec116100c85780634b82caec146101795780636b7b44d7146101b05780638393a040146101e65780638aaa737014610218576100ea565b8063079f24a0146100ef578063182ab292146101275780632ef368a914610143575b600080fd5b610109600480360381019061010491906124ee565b610366565b60405161011e99989796959493929190612b4a565b60405180910390f35b610141600480360381019061013c919061251b565b610710565b005b61015d600480360381019061015891906124ee565b610b23565b6040516101709796959493929190612ad4565b60405180910390f35b610193600480360381019061018e91906124ee565b610c5a565b6040516101a7989796959493929190612978565b60405180910390f35b6101ca60048036038101906101c591906124ee565b611061565b6040516101dd97969594939291906128f4565b60405180910390f35b61020060048036038101906101fb91906124ee565b6112bb565b60405161020f939291906128b6565b60405180910390f35b610232600480360381019061022d91906124ee565b6113ad565b60405161023f9190612c0e565b60405180910390f35b610262600480360381019061025d91906124ee565b6113cd565b60405161026f9190612c29565b60405180910390f35b610292600480360381019061028d91906124ee565b6113ed565b6040516102a0929190612886565b60405180910390f35b6102c360048036038101906102be91906125e6565b6114b9565b005b6102df60048036038101906102da919061258a565b611934565b005b6102fb60048036038101906102f691906124ee565b611d2b565b60405161030b9493929190612a7a565b60405180910390f35b61032e600480360381019061032991906124ee565b611f72565b60405161033f959493929190612a12565b60405180910390f35b61035061221a565b60405161035d9190612bec565b60405180910390f35b60008060008060606000806060806000600360008c73ffffffffffffffffffffffffffffffffffffffff1673ffffffffffffffffffffffffffffffffffffffff168152602001908152602001600020604051806101200160405290816000820160009054906101000a900473ffffffffffffffffffffffffffffffffffffffff1673ffffffffffffffffffffffffffffffffffffffff1673ffffffffffffffffffffffffffffffffffffffff16815260200160018201548152602001600282015481526020016003820160009054906101000a900460ff1660028111156104505761044f612ec9565b5b600281111561046257610461612ec9565b5b815260200160048201805461047690612e66565b80601f01602080910402602001604051908101604052809291908181526020018280546104a290612e66565b80156104ef5780601f106104c4576101008083540402835291602001916104ef565b820191906000526020600020905b8154815290600101906020018083116104d257829003601f168201915b505050505081526020016005820160009054906101000a900473ffffffffffffffffffffffffffffffffffffffff1673ffffffffffffffffffffffffffffffffffffffff1673ffffffffffffffffffffffffffffffffffffffff1681526020016006820160009054906101000a900473ffffffffffffffffffffffffffffffffffffffff1673ffffffffffffffffffffffffffffffffffffffff1673ffffffffffffffffffffffffffffffffffffffff1681526020016007820180548060200260200160405190810160405280929190818152602001828054801561062957602002820191906000526020600020905b8160009054906101000a900473ffffffffffffffffffffffffffffffffffffffff1673ffffffffffffffffffffffffffffffffffffffff16815260200190600101908083116105df575b50505050508152602001600882018054806020026020016040519081016040528092919081815260200182805480156106b757602002820191906000526020600020905b8160009054906101000a900473ffffffffffffffffffffffffffffffffffffffff1673ffffffffffffffffffffffffffffffffffffffff168152602001906001019080831161066d575b5050505050815250509050806000015181602001518260400151836060015184608001518560a001518660c001518760e00151886101000151995099509950995099509950995099509950509193959799909294969850565b60001515600660008573ffffffffffffffffffffffffffffffffffffffff1673ffffffffffffffffffffffffffffffffffffffff16815260200190815260200160002060009054906101000a900460ff161515146107a3576040517f08c379a000000000000000000000000000000000000000000000000000000000815260040161079a90612c84565b60405180910390fd5b60006040518060a001604052808573ffffffffffffffffffffffffffffffffffffffff1681526020018481526020018373ffffffffffffffffffffffffffffffffffffffff168152602001600067ffffffffffffffff81111561080957610808612f27565b5b6040519080825280602002602001820160405280156108375781602001602082028036833780820191505090505b508152602001600067ffffffffffffffff81111561085857610857612f27565b5b6040519080825280602002602001820160405280156108865781602001602082028036833780820191505090505b50815250905080600460008673ffffffffffffffffffffffffffffffffffffffff1673ffffffffffffffffffffffffffffffffffffffff16815260200190815260200160002060008201518160000160006101000a81548173ffffffffffffffffffffffffffffffffffffffff021916908373ffffffffffffffffffffffffffffffffffffffff160217905550602082015181600101908051906020019061092f9291906122a8565b5060408201518160020160006101000a81548173ffffffffffffffffffffffffffffffffffffffff021916908373ffffffffffffffffffffffffffffffffffffffff160217905550606082015181600301908051906020019061099392919061232e565b5060808201518160040190805190602001906109b09291906123b8565b509050506001600660008673ffffffffffffffffffffffffffffffffffffffff1673ffffffffffffffffffffffffffffffffffffffff16815260200190815260200160002060006101000a81548160ff0219169083151502179055506000600560008473ffffffffffffffffffffffffffffffffffffffff1673ffffffffffffffffffffffffffffffffffffffff168152602001908152602001600020905080600201859080600181540180825580915050600190039060005260206000200160009091909190916101000a81548173ffffffffffffffffffffffffffffffffffffffff021916908373ffffffffffffffffffffffffffffffffffffffff1602179055506001600860008773ffffffffffffffffffffffffffffffffffffffff1673ffffffffffffffffffffffffffffffffffffffff16815260200190815260200160002060006101000a81548160ff02191690836002811115610b1757610b16612ec9565b5b02179055505050505050565b60036020528060005260406000206000915090508060000160009054906101000a900473ffffffffffffffffffffffffffffffffffffffff16908060010154908060020154908060030160009054906101000a900460ff1690806004018054610b8b90612e66565b80601f0160208091040260200160405190810160405280929190818152602001828054610bb790612e66565b8015610c045780601f10610bd957610100808354040283529160200191610c04565b820191906000526020600020905b815481529060010190602001808311610be757829003601f168201915b5050505050908060050160009054906101000a900473ffffffffffffffffffffffffffffffffffffffff16908060060160009054906101000a900473ffffffffffffffffffffffffffffffffffffffff16905087565b60006060600080600060608060606000600260008b73ffffffffffffffffffffffffffffffffffffffff1673ffffffffffffffffffffffffffffffffffffffff168152602001908152602001600020604051806101000160405290816000820160009054906101000a900473ffffffffffffffffffffffffffffffffffffffff1673ffffffffffffffffffffffffffffffffffffffff1673ffffffffffffffffffffffffffffffffffffffff168152602001600182018054610d1b90612e66565b80601f0160208091040260200160405190810160405280929190818152602001828054610d4790612e66565b8015610d945780601f10610d6957610100808354040283529160200191610d94565b820191906000526020600020905b815481529060010190602001808311610d7757829003601f168201915b505050505081526020016002820160009054906101000a900473ffffffffffffffffffffffffffffffffffffffff1673ffffffffffffffffffffffffffffffffffffffff1673ffffffffffffffffffffffffffffffffffffffff1681526020016003820160009054906101000a900473ffffffffffffffffffffffffffffffffffffffff1673ffffffffffffffffffffffffffffffffffffffff1673ffffffffffffffffffffffffffffffffffffffff1681526020016004820160009054906101000a900473ffffffffffffffffffffffffffffffffffffffff1673ffffffffffffffffffffffffffffffffffffffff1673ffffffffffffffffffffffffffffffffffffffff168152602001600582018054610eaf90612e66565b80601f0160208091040260200160405190810160405280929190818152602001828054610edb90612e66565b8015610f285780601f10610efd57610100808354040283529160200191610f28565b820191906000526020600020905b815481529060010190602001808311610f0b57829003601f168201915b50505050508152602001600682018054610f4190612e66565b80601f0160208091040260200160405190810160405280929190818152602001828054610f6d90612e66565b8015610fba5780601f10610f8f57610100808354040283529160200191610fba565b820191906000526020600020905b815481529060010190602001808311610f9d57829003601f168201915b505050505081526020016007820180548060200260200160405190810160405280929190818152602001828054801561101257602002820191906000526020600020905b815481526020019060010190808311610ffe575b5050505050815250509050806000015181602001518260400151836060015184608001518560a001518660c001518760e001519850985098509850985098509850985050919395975091939597565b60026020528060005260406000206000915090508060000160009054906101000a900473ffffffffffffffffffffffffffffffffffffffff16908060010180546110aa90612e66565b80601f01602080910402602001604051908101604052809291908181526020018280546110d690612e66565b80156111235780601f106110f857610100808354040283529160200191611123565b820191906000526020600020905b81548152906001019060200180831161110657829003601f168201915b5050505050908060020160009054906101000a900473ffffffffffffffffffffffffffffffffffffffff16908060030160009054906101000a900473ffffffffffffffffffffffffffffffffffffffff16908060040160009054906101000a900473ffffffffffffffffffffffffffffffffffffffff16908060050180546111aa90612e66565b80601f01602080910402602001604051908101604052809291908181526020018280546111d690612e66565b80156112235780601f106111f857610100808354040283529160200191611223565b820191906000526020600020905b81548152906001019060200180831161120657829003601f168201915b50505050509080600601805461123890612e66565b80601f016020809104026020016040519081016040528092919081815260200182805461126490612e66565b80156112b15780601f10611286576101008083540402835291602001916112b1565b820191906000526020600020905b81548152906001019060200180831161129457829003601f168201915b5050505050905087565b60046020528060005260406000206000915090508060000160009054906101000a900473ffffffffffffffffffffffffffffffffffffffff169080600101805461130490612e66565b80601f016020809104026020016040519081016040528092919081815260200182805461133090612e66565b801561137d5780601f106113525761010080835404028352916020019161137d565b820191906000526020600020905b81548152906001019060200180831161136057829003601f168201915b5050505050908060020160009054906101000a900473ffffffffffffffffffffffffffffffffffffffff16905083565b60076020528060005260406000206000915054906101000a900460ff1681565b60086020528060005260406000206000915054906101000a900460ff1681565b60056020528060005260406000206000915090508060000160009054906101000a900473ffffffffffffffffffffffffffffffffffffffff169080600101805461143690612e66565b80601f016020809104026020016040519081016040528092919081815260200182805461146290612e66565b80156114af5780601f10611484576101008083540402835291602001916114af565b820191906000526020600020905b81548152906001019060200180831161149257829003601f168201915b5050505050905082565b60001515600660008773ffffffffffffffffffffffffffffffffffffffff1673ffffffffffffffffffffffffffffffffffffffff16815260200190815260200160002060009054906101000a900460ff1615151461154c576040517f08c379a000000000000000000000000000000000000000000000000000000000815260040161154390612c44565b60405180910390fd5b6001600660008773ffffffffffffffffffffffffffffffffffffffff1673ffffffffffffffffffffffffffffffffffffffff16815260200190815260200160002060006101000a81548160ff02191690831515021790555060006040518061012001604052808773ffffffffffffffffffffffffffffffffffffffff1681526020018381526020018381526020018660028111156115ed576115ec612ec9565b5b81526020018881526020018573ffffffffffffffffffffffffffffffffffffffff1681526020018473ffffffffffffffffffffffffffffffffffffffff168152602001600067ffffffffffffffff81111561164b5761164a612f27565b5b6040519080825280602002602001820160405280156116795781602001602082028036833780820191505090505b508152602001600067ffffffffffffffff81111561169a57611699612f27565b5b6040519080825280602002602001820160405280156116c85781602001602082028036833780820191505090505b5081525090506000600460008673ffffffffffffffffffffffffffffffffffffffff1673ffffffffffffffffffffffffffffffffffffffff168152602001908152602001600020905080600301879080600181540180825580915050600190039060005260206000200160009091909190916101000a81548173ffffffffffffffffffffffffffffffffffffffff021916908373ffffffffffffffffffffffffffffffffffffffff16021790555081600360008973ffffffffffffffffffffffffffffffffffffffff1673ffffffffffffffffffffffffffffffffffffffff16815260200190815260200160002060008201518160000160006101000a81548173ffffffffffffffffffffffffffffffffffffffff021916908373ffffffffffffffffffffffffffffffffffffffff160217905550602082015181600101556040820151816002015560608201518160030160006101000a81548160ff0219169083600281111561183c5761183b612ec9565b5b0217905550608082015181600401908051906020019061185d9291906122a8565b5060a08201518160050160006101000a81548173ffffffffffffffffffffffffffffffffffffffff021916908373ffffffffffffffffffffffffffffffffffffffff16021790555060c08201518160060160006101000a81548173ffffffffffffffffffffffffffffffffffffffff021916908373ffffffffffffffffffffffffffffffffffffffff16021790555060e082015181600701908051906020019061190892919061232e565b5061010082015181600801908051906020019061192692919061232e565b509050505050505050505050565b60008054906101000a900473ffffffffffffffffffffffffffffffffffffffff1673ffffffffffffffffffffffffffffffffffffffff163373ffffffffffffffffffffffffffffffffffffffff16146119c2576040517f08c379a00000000000000000000000000000000000000000000000000000000081526004016119b990612c64565b60405180910390fd5b60001515600660008373ffffffffffffffffffffffffffffffffffffffff1673ffffffffffffffffffffffffffffffffffffffff16815260200190815260200160002060009054906101000a900460ff16151514611a55576040517f08c379a0000000000000000000000000000000000000000000000000000000008152600401611a4c90612c84565b60405180910390fd5b600060405180608001604052808373ffffffffffffffffffffffffffffffffffffffff168152602001848152602001600067ffffffffffffffff811115611a9f57611a9e612f27565b5b604051908082528060200260200182016040528015611acd5781602001602082028036833780820191505090505b508152602001600067ffffffffffffffff811115611aee57611aed612f27565b5b604051908082528060200260200182016040528015611b1c5781602001602082028036833780820191505090505b50815250905080600560008473ffffffffffffffffffffffffffffffffffffffff1673ffffffffffffffffffffffffffffffffffffffff16815260200190815260200160002060008201518160000160006101000a81548173ffffffffffffffffffffffffffffffffffffffff021916908373ffffffffffffffffffffffffffffffffffffffff1602179055506020820151816001019080519060200190611bc59291906122a8565b506040820151816002019080519060200190611be292919061232e565b506060820151816003019080519060200190611bff9291906123b8565b509050506001829080600181540180825580915050600190039060005260206000200160009091909190916101000a81548173ffffffffffffffffffffffffffffffffffffffff021916908373ffffffffffffffffffffffffffffffffffffffff1602179055506001600660008473ffffffffffffffffffffffffffffffffffffffff1673ffffffffffffffffffffffffffffffffffffffff16815260200190815260200160002060006101000a81548160ff0219169083151502179055506000600860008473ffffffffffffffffffffffffffffffffffffffff1673ffffffffffffffffffffffffffffffffffffffff16815260200190815260200160002060006101000a81548160ff02191690836002811115611d2157611d20612ec9565b5b0217905550505050565b600060608060606000600560008773ffffffffffffffffffffffffffffffffffffffff1673ffffffffffffffffffffffffffffffffffffffff1681526020019081526020016000206040518060800160405290816000820160009054906101000a900473ffffffffffffffffffffffffffffffffffffffff1673ffffffffffffffffffffffffffffffffffffffff1673ffffffffffffffffffffffffffffffffffffffff168152602001600182018054611de490612e66565b80601f0160208091040260200160405190810160405280929190818152602001828054611e1090612e66565b8015611e5d5780601f10611e3257610100808354040283529160200191611e5d565b820191906000526020600020905b815481529060010190602001808311611e4057829003601f168201915b5050505050815260200160028201805480602002602001604051908101604052809291908181526020018280548015611eeb57602002820191906000526020600020905b8160009054906101000a900473ffffffffffffffffffffffffffffffffffffffff1673ffffffffffffffffffffffffffffffffffffffff1681526020019060010190808311611ea1575b5050505050815260200160038201805480602002602001604051908101604052809291908181526020018280548015611f4357602002820191906000526020600020905b815481526020019060010190808311611f2f575b505050505081525050905080600001518160200151826040015183606001519450945094509450509193509193565b6000606060006060806000600460008873ffffffffffffffffffffffffffffffffffffffff1673ffffffffffffffffffffffffffffffffffffffff1681526020019081526020016000206040518060a00160405290816000820160009054906101000a900473ffffffffffffffffffffffffffffffffffffffff1673ffffffffffffffffffffffffffffffffffffffff1673ffffffffffffffffffffffffffffffffffffffff16815260200160018201805461202d90612e66565b80601f016020809104026020016040519081016040528092919081815260200182805461205990612e66565b80156120a65780601f1061207b576101008083540402835291602001916120a6565b820191906000526020600020905b81548152906001019060200180831161208957829003601f168201915b505050505081526020016002820160009054906101000a900473ffffffffffffffffffffffffffffffffffffffff1673ffffffffffffffffffffffffffffffffffffffff1673ffffffffffffffffffffffffffffffffffffffff1681526020016003820180548060200260200160405190810160405280929190818152602001828054801561218a57602002820191906000526020600020905b8160009054906101000a900473ffffffffffffffffffffffffffffffffffffffff1673ffffffffffffffffffffffffffffffffffffffff1681526020019060010190808311612140575b50505050508152602001600482018054806020026020016040519081016040528092919081815260200182805480156121e257602002820191906000526020600020905b8154815260200190600101908083116121ce575b505050505081525050905080600001518160200151826040015183606001518460800151955095509550955095505091939590929450565b6060600180548060200260200160405190810160405280929190818152602001828054801561229e57602002820191906000526020600020905b8160009054906101000a900473ffffffffffffffffffffffffffffffffffffffff1673ffffffffffffffffffffffffffffffffffffffff1681526020019060010190808311612254575b5050505050905090565b8280546122b490612e66565b90600052602060002090601f0160209004810192826122d6576000855561231d565b82601f106122ef57805160ff191683800117855561231d565b8280016001018555821561231d579182015b8281111561231c578251825591602001919060010190612301565b5b50905061232a9190612405565b5090565b8280548282559060005260206000209081019282156123a7579160200282015b828111156123a65782518260006101000a81548173ffffffffffffffffffffffffffffffffffffffff021916908373ffffffffffffffffffffffffffffffffffffffff1602179055509160200191906001019061234e565b5b5090506123b49190612405565b5090565b8280548282559060005260206000209081019282156123f4579160200282015b828111156123f35782518255916020019190600101906123d8565b5b5090506124019190612422565b5090565b5b8082111561241e576000816000905550600101612406565b5090565b5b8082111561243b576000816000905550600101612423565b5090565b600061245261244d84612cc9565b612ca4565b90508281526020810184848401111561246e5761246d612f5b565b5b612479848285612e24565b509392505050565b6000813590506124908161301e565b92915050565b6000813590506124a581613035565b92915050565b600082601f8301126124c0576124bf612f56565b5b81356124d084826020860161243f565b91505092915050565b6000813590506124e881613045565b92915050565b60006020828403121561250457612503612f65565b5b600061251284828501612481565b91505092915050565b60008060006060848603121561253457612533612f65565b5b600061254286828701612481565b935050602084013567ffffffffffffffff81111561256357612562612f60565b5b61256f868287016124ab565b925050604061258086828701612481565b9150509250925092565b600080604083850312156125a1576125a0612f65565b5b600083013567ffffffffffffffff8111156125bf576125be612f60565b5b6125cb858286016124ab565b92505060206125dc85828601612481565b9150509250929050565b60008060008060008060c0878903121561260357612602612f65565b5b600087013567ffffffffffffffff81111561262157612620612f60565b5b61262d89828a016124ab565b965050602061263e89828a01612481565b955050604061264f89828a01612496565b945050606061266089828a01612481565b935050608061267189828a01612481565b92505060a061268289828a016124d9565b9150509295509295509295565b600061269b83836126bf565b60208301905092915050565b60006126b383836127a8565b60208301905092915050565b6126c881612d88565b82525050565b6126d781612d88565b82525050565b60006126e882612d1a565b6126f28185612d55565b93506126fd83612cfa565b8060005b8381101561272e578151612715888261268f565b975061272083612d3b565b925050600181019050612701565b5085935050505092915050565b600061274682612d25565b6127508185612d66565b935061275b83612d0a565b8060005b8381101561278c57815161277388826126a7565b975061277e83612d48565b92505060018101905061275f565b5085935050505092915050565b6127a281612d9a565b82525050565b6127b181612da6565b82525050565b6127c081612e00565b82525050565b6127cf81612e12565b82525050565b60006127e082612d30565b6127ea8185612d77565b93506127fa818560208601612e33565b61280381612f6a565b840191505092915050565b600061281b600c83612d77565b915061282682612f7b565b602082019050919050565b600061283e600e83612d77565b915061284982612fa4565b602082019050919050565b6000612861600a83612d77565b915061286c82612fcd565b602082019050919050565b61288081612df6565b82525050565b600060408201905061289b60008301856126ce565b81810360208301526128ad81846127d5565b90509392505050565b60006060820190506128cb60008301866126ce565b81810360208301526128dd81856127d5565b90506128ec60408301846126ce565b949350505050565b600060e082019050612909600083018a6126ce565b818103602083015261291b81896127d5565b905061292a60408301886126ce565b61293760608301876126ce565b61294460808301866126ce565b81810360a083015261295681856127d5565b905081810360c083015261296a81846127d5565b905098975050505050505050565b60006101008201905061298e600083018b6126ce565b81810360208301526129a0818a6127d5565b90506129af60408301896126ce565b6129bc60608301886126ce565b6129c960808301876126ce565b81810360a08301526129db81866127d5565b905081810360c08301526129ef81856127d5565b905081810360e0830152612a03818461273b565b90509998505050505050505050565b600060a082019050612a2760008301886126ce565b8181036020830152612a3981876127d5565b9050612a4860408301866126ce565b8181036060830152612a5a81856126dd565b90508181036080830152612a6e818461273b565b90509695505050505050565b6000608082019050612a8f60008301876126ce565b8181036020830152612aa181866127d5565b90508181036040830152612ab581856126dd565b90508181036060830152612ac9818461273b565b905095945050505050565b600060e082019050612ae9600083018a6126ce565b612af66020830189612877565b612b036040830188612877565b612b1060608301876127b7565b8181036080830152612b2281866127d5565b9050612b3160a08301856126ce565b612b3e60c08301846126ce565b98975050505050505050565b600061012082019050612b60600083018c6126ce565b612b6d602083018b612877565b612b7a604083018a612877565b612b8760608301896127b7565b8181036080830152612b9981886127d5565b9050612ba860a08301876126ce565b612bb560c08301866126ce565b81810360e0830152612bc781856126dd565b9050818103610100830152612bdc81846126dd565b90509a9950505050505050505050565b60006020820190508181036000830152612c0681846126dd565b905092915050565b6000602082019050612c236000830184612799565b92915050565b6000602082019050612c3e60008301846127c6565b92915050565b60006020820190508181036000830152612c5d8161280e565b9050919050565b60006020820190508181036000830152612c7d81612831565b9050919050565b60006020820190508181036000830152612c9d81612854565b9050919050565b6000612cae612cbf565b9050612cba8282612e98565b919050565b6000604051905090565b600067ffffffffffffffff821115612ce457612ce3612f27565b5b612ced82612f6a565b9050602081019050919050565b6000819050602082019050919050565b6000819050602082019050919050565b600081519050919050565b600081519050919050565b600081519050919050565b6000602082019050919050565b6000602082019050919050565b600082825260208201905092915050565b600082825260208201905092915050565b600082825260208201905092915050565b6000612d9382612dd6565b9050919050565b60008115159050919050565b6000819050919050565b6000819050612dbe82612ff6565b919050565b6000819050612dd18261300a565b919050565b600073ffffffffffffffffffffffffffffffffffffffff82169050919050565b6000819050919050565b6000612e0b82612db0565b9050919050565b6000612e1d82612dc3565b9050919050565b82818337600083830152505050565b60005b83811015612e51578082015181840152602081019050612e36565b83811115612e60576000848401525b50505050565b60006002820490506001821680612e7e57607f821691505b60208210811415612e9257612e91612ef8565b5b50919050565b612ea182612f6a565b810181811067ffffffffffffffff82111715612ec057612ebf612f27565b5b80604052505050565b7f4e487b7100000000000000000000000000000000000000000000000000000000600052602160045260246000fd5b7f4e487b7100000000000000000000000000000000000000000000000000000000600052602260045260246000fd5b7f4e487b7100000000000000000000000000000000000000000000000000000000600052604160045260246000fd5b600080fd5b600080fd5b600080fd5b600080fd5b6000601f19601f8301169050919050565b7f436f757273652045786973740000000000000000000000000000000000000000600082015250565b7f556e617574686f72697a65642121000000000000000000000000000000000000600082015250565b7f5573657220457869737400000000000000000000000000000000000000000000600082015250565b6003811061300757613006612ec9565b5b50565b6003811061301b5761301a612ec9565b5b50565b61302781612d88565b811461303257600080fd5b50565b6003811061304257600080fd5b50565b61304e81612df6565b811461305957600080fd5b5056fea2646970667358221220d2fc263ffb5c19b9230f5cf58de78a8ef9e9b4dbf8b27cc2308093378ae9da3764736f6c63430008070033",
  "linkReferences": {},
  "deployedLinkReferences": {}
}